{
  "_format": "hh-sol-artifact-1",
  "contractName": "UserVaultSystem",
  "sourceName": "contracts/UserVaultSystem.sol",
  "abi": [
    {
      "inputs": [],
      "stateMutability": "nonpayable",
      "type": "constructor"
    },
    {
      "anonymous": false,
      "inputs": [
        {
          "indexed": true,
          "internalType": "address",
          "name": "userAddress",
          "type": "address"
        },
        {
          "indexed": false,
          "internalType": "uint256",
          "name": "amount",
          "type": "uint256"
        }
      ],
      "name": "Deposited",
      "type": "event"
    },
    {
      "anonymous": false,
      "inputs": [
        {
          "indexed": true,
          "internalType": "address",
          "name": "userAddress",
          "type": "address"
        }
      ],
      "name": "LoggedIn",
      "type": "event"
    },
    {
      "anonymous": false,
      "inputs": [
        {
          "indexed": true,
          "internalType": "address",
          "name": "userAddress",
          "type": "address"
        }
      ],
      "name": "LoggedOut",
      "type": "event"
    },
    {
      "anonymous": false,
      "inputs": [
        {
          "indexed": true,
          "internalType": "address",
          "name": "user",
          "type": "address"
        },
        {
          "indexed": false,
          "internalType": "uint256",
          "name": "amount",
          "type": "uint256"
        }
      ],
      "name": "PushedToPool",
      "type": "event"
    },
    {
      "anonymous": false,
      "inputs": [
        {
          "indexed": true,
          "internalType": "address",
          "name": "user",
          "type": "address"
        },
        {
          "indexed": false,
          "internalType": "uint256",
          "name": "amount",
          "type": "uint256"
        }
      ],
      "name": "ScoopedFromPool",
      "type": "event"
    },
    {
      "anonymous": false,
      "inputs": [
        {
          "indexed": true,
          "internalType": "address",
          "name": "userAddress",
          "type": "address"
        }
      ],
      "name": "UserFrozen",
      "type": "event"
    },
    {
      "anonymous": false,
      "inputs": [
        {
          "indexed": true,
          "internalType": "address",
          "name": "userAddress",
          "type": "address"
        },
        {
          "indexed": false,
          "internalType": "string",
          "name": "username",
          "type": "string"
        }
      ],
      "name": "UserRegistered",
      "type": "event"
    },
    {
      "anonymous": false,
      "inputs": [
        {
          "indexed": true,
          "internalType": "address",
          "name": "userAddress",
          "type": "address"
        }
      ],
      "name": "UserUnfrozen",
      "type": "event"
    },
    {
      "anonymous": false,
      "inputs": [
        {
          "indexed": true,
          "internalType": "address",
          "name": "account",
          "type": "address"
        }
      ],
      "name": "WhitelistAdded",
      "type": "event"
    },
    {
      "anonymous": false,
      "inputs": [
        {
          "indexed": true,
          "internalType": "address",
          "name": "account",
          "type": "address"
        }
      ],
      "name": "WhitelistRemoved",
      "type": "event"
    },
    {
      "anonymous": false,
      "inputs": [
        {
          "indexed": true,
          "internalType": "address",
          "name": "userAddress",
          "type": "address"
        },
        {
          "indexed": false,
          "internalType": "uint256",
          "name": "amount",
          "type": "uint256"
        }
      ],
      "name": "Withdrawn",
      "type": "event"
    },
    {
      "inputs": [
        {
          "internalType": "uint256",
          "name": "amount",
          "type": "uint256"
        }
      ],
      "name": "addToPool",
      "outputs": [],
      "stateMutability": "nonpayable",
      "type": "function"
    },
    {
      "inputs": [
        {
          "internalType": "address",
          "name": "account",
          "type": "address"
        }
      ],
      "name": "addToWhitelist",
      "outputs": [],
      "stateMutability": "nonpayable",
      "type": "function"
    },
    {
      "inputs": [
        {
          "internalType": "string",
          "name": "oldPassword",
          "type": "string"
        },
        {
          "internalType": "string",
          "name": "newPassword",
          "type": "string"
        }
      ],
      "name": "changePassword",
      "outputs": [],
      "stateMutability": "nonpayable",
      "type": "function"
    },
    {
      "inputs": [],
      "name": "checkLoginStatus",
      "outputs": [
        {
          "internalType": "bool",
          "name": "",
          "type": "bool"
        }
      ],
      "stateMutability": "view",
      "type": "function"
    },
    {
      "inputs": [],
      "name": "deposit",
      "outputs": [],
      "stateMutability": "payable",
      "type": "function"
    },
    {
      "inputs": [],
      "name": "gamePoolBalance",
      "outputs": [
        {
          "internalType": "uint256",
          "name": "",
          "type": "uint256"
        }
      ],
      "stateMutability": "view",
      "type": "function"
    },
    {
      "inputs": [],
      "name": "getUserInfo",
      "outputs": [
        {
          "internalType": "string",
          "name": "username",
          "type": "string"
        },
        {
          "internalType": "uint256",
          "name": "balance",
          "type": "uint256"
        },
        {
          "internalType": "bool",
          "name": "frozen",
          "type": "bool"
        }
      ],
      "stateMutability": "view",
      "type": "function"
    },
    {
      "inputs": [],
      "name": "getVaultBalance",
      "outputs": [
        {
          "internalType": "uint256",
          "name": "",
          "type": "uint256"
        }
      ],
      "stateMutability": "view",
      "type": "function"
    },
    {
      "inputs": [
        {
          "internalType": "address",
          "name": "account",
          "type": "address"
        }
      ],
      "name": "isAdmin",
      "outputs": [
        {
          "internalType": "bool",
          "name": "",
          "type": "bool"
        }
      ],
      "stateMutability": "view",
      "type": "function"
    },
    {
      "inputs": [
        {
          "internalType": "address",
          "name": "userAddress",
          "type": "address"
        },
        {
          "internalType": "uint256",
          "name": "amount",
          "type": "uint256"
        }
      ],
      "name": "isBalanceGreaterThan",
      "outputs": [
        {
          "internalType": "bool",
          "name": "",
          "type": "bool"
        }
      ],
      "stateMutability": "view",
      "type": "function"
    },
    {
      "inputs": [
        {
          "internalType": "address",
          "name": "userAddress",
          "type": "address"
        }
      ],
      "name": "isSessionExpired",
      "outputs": [
        {
          "internalType": "bool",
          "name": "",
          "type": "bool"
        }
      ],
      "stateMutability": "view",
      "type": "function"
    },
    {
      "inputs": [
        {
          "internalType": "string",
          "name": "password",
          "type": "string"
        }
      ],
      "name": "login",
      "outputs": [],
      "stateMutability": "nonpayable",
      "type": "function"
    },
    {
      "inputs": [],
      "name": "logout",
      "outputs": [],
      "stateMutability": "nonpayable",
      "type": "function"
    },
    {
      "inputs": [],
      "name": "owner",
      "outputs": [
        {
          "internalType": "address",
          "name": "",
          "type": "address"
        }
      ],
      "stateMutability": "view",
      "type": "function"
    },
    {
      "inputs": [
        {
          "internalType": "uint256",
          "name": "amount",
          "type": "uint256"
        }
      ],
      "name": "pushToPool",
      "outputs": [],
      "stateMutability": "nonpayable",
      "type": "function"
    },
    {
      "inputs": [
        {
          "internalType": "string",
          "name": "username",
          "type": "string"
        },
        {
          "internalType": "string",
          "name": "password",
          "type": "string"
        }
      ],
      "name": "registerUser",
      "outputs": [],
      "stateMutability": "nonpayable",
      "type": "function"
    },
    {
      "inputs": [
        {
          "internalType": "uint256",
          "name": "amount",
          "type": "uint256"
        }
      ],
      "name": "removeFromPool",
      "outputs": [],
      "stateMutability": "nonpayable",
      "type": "function"
    },
    {
      "inputs": [
        {
          "internalType": "address",
          "name": "account",
          "type": "address"
        }
      ],
      "name": "removeFromWhitelist",
      "outputs": [],
      "stateMutability": "nonpayable",
      "type": "function"
    },
    {
      "inputs": [
        {
          "internalType": "address",
          "name": "to",
          "type": "address"
        },
        {
          "internalType": "uint256",
          "name": "amount",
          "type": "uint256"
        }
      ],
      "name": "scoopFromPool",
      "outputs": [],
      "stateMutability": "nonpayable",
      "type": "function"
    },
    {
      "inputs": [],
      "name": "sessionTimeout",
      "outputs": [
        {
          "internalType": "uint256",
          "name": "",
          "type": "uint256"
        }
      ],
      "stateMutability": "view",
      "type": "function"
    },
    {
      "inputs": [],
      "name": "updateLastActivity",
      "outputs": [],
      "stateMutability": "nonpayable",
      "type": "function"
    },
    {
      "inputs": [
        {
          "internalType": "address",
          "name": "",
          "type": "address"
        }
      ],
      "name": "users",
      "outputs": [
        {
          "internalType": "string",
          "name": "username",
          "type": "string"
        },
        {
          "internalType": "uint256",
          "name": "balance",
          "type": "uint256"
        },
        {
          "internalType": "bytes32",
          "name": "password",
          "type": "bytes32"
        },
        {
          "internalType": "bool",
          "name": "exists",
          "type": "bool"
        },
        {
          "internalType": "uint256",
          "name": "lastActivity",
          "type": "uint256"
        },
        {
          "internalType": "bool",
          "name": "frozen",
          "type": "bool"
        },
        {
          "internalType": "bool",
          "name": "isLoggedIn",
          "type": "bool"
        }
      ],
      "stateMutability": "view",
      "type": "function"
    },
    {
      "inputs": [
        {
          "internalType": "string",
          "name": "password",
          "type": "string"
        }
      ],
      "name": "verifyPassword",
      "outputs": [
        {
          "internalType": "bool",
          "name": "",
          "type": "bool"
        }
      ],
      "stateMutability": "view",
      "type": "function"
    },
    {
      "inputs": [
        {
          "internalType": "address",
          "name": "",
          "type": "address"
        }
      ],
      "name": "whitelist",
      "outputs": [
        {
          "internalType": "bool",
          "name": "",
          "type": "bool"
        }
      ],
      "stateMutability": "view",
      "type": "function"
    },
    {
      "inputs": [
        {
          "internalType": "uint256",
          "name": "amount",
          "type": "uint256"
        }
      ],
      "name": "withdraw",
      "outputs": [],
      "stateMutability": "nonpayable",
      "type": "function"
    }
  ],
  "bytecode": "0x6080806040523461003c5762057e4060015568056bc75e2d63100000600455600080546001600160a01b0319163317905561187790816100428239f35b600080fdfe6080604052600436101561001257600080fd5b60003560e01c8063080683e41461128e57806309c01e8f146112705780631c5fc483146112105780631d2e4afd14610e9a5780631f3c99c314610e0a57806324d7806c14610db25780632e1a7d4d14610ba3578063347c9e4214610b0a578063398d536c14610add5780633a7d280c146109cc57806343589db81461093c5780635d8d15851461089557806384a836621461072a5780638ab1d681146106b95780638da5cb5b146106905780639ac27dd3146106725780639b19251a146106335780639fdc17aa14610511578063a87430ba14610471578063cee6b53c14610446578063d0a8bc2c146103d5578063d0e30db0146102c3578063e43252d71461024f578063e8812805146101505763ed12e8ef1461012f57600080fd5b3461014b57600036600319011261014b57602047604051908152f35b600080fd5b3461014b5760208060031936011261014b577f5e0dbd03b3e7ce681d3f44a00947feb8fb1231568a4f453b29c99c242f72a90c6004359133600052600281526101a360ff60036040600020015416611496565b33600052600281526101c260ff60056040600020015460081c166114d8565b6101d46101ce3361158e565b156115ed565b6101df831515611723565b33600052600281526101fb83600160406000200154101561168a565b336000526002815261021860ff6005604060002001541615611645565b33600052600281526001604060002001610233848254611581565b905561024183600454611519565b6004556040519283523392a2005b3461014b57602036600319011261014b57610268611322565b6000546001600160a01b03919061028290831633146116cd565b168060005260036020526040600020600160ff198254161790557f4790a4adb426ca2345bb5108f6e454eae852a7bf687544cd66a7270dff3a41d6600080a2005b600036600319011261014b573360005260026020526102ec60ff60036040600020015416611496565b33600052600260205261030c60ff60056040600020015460081c166114d8565b6103186101ce3361158e565b341561038257336000526002602052600160406000200161033a348254611519565b905561035433600052600260205242600460406000200155565b6040513481527f2da466a7b24304f47e87fa2e1e5a81b9831ce54fec19055ce277ca2f39ba42c460203392a2005b60405162461bcd60e51b815260206004820152602560248201527f4465706f73697420616d6f756e74206d75737420626520677265617465722074604482015264068616e20360dc1b6064820152608490fd5b3461014b57602036600319011261014b5761042860043560018060a01b03600054163314801561042d575b6104099061176f565b610414811515611800565b600454610423828210156117b4565b611581565b600455005b503360009081526003602052604090205460ff16610400565b3461014b57600036600319011261014b5761046f33600052600260205242600460406000200155565b005b3461014b57602036600319011261014b576001600160a01b03610492611322565b1660005260026020526104e160406000206104ac816113d4565b9060ff60018201549160028101549082600382015416600560048301549201549260405197889760e0895260e0890190611338565b9560208801526040870152151560608601526080850152818116151560a085015260081c16151560c08301520390f35b3461014b57604036600319011261014b5761052a611322565b600054602435916001600160a01b039182163314801561061a575b61054e9061176f565b1680600052600260205260ff60036040600020015416156105d557610574821515611723565b61058782600454610423828210156117b4565b600455600052600260205260016040600020016105a5828254611519565b90556040519081527f74dd68f11699d5255cfb547532712e0bd75fbe11c35383a62c0142adf2a79b7f60203392a2005b60405162461bcd60e51b815260206004820152601860248201527f526563697069656e74206e6f74207265676973746572656400000000000000006044820152606490fd5b503360009081526003602052604090205460ff16610545565b3461014b57602036600319011261014b576001600160a01b03610654611322565b166000526003602052602060ff604060002054166040519015158152f35b3461014b57600036600319011261014b576020600454604051908152f35b3461014b57600036600319011261014b576000546040516001600160a01b039091168152602090f35b3461014b57602036600319011261014b576106d2611322565b6000546001600160a01b0391906106ec90831633146116cd565b16806000526003602052604060002060ff1981541690557fde8cf212af7ce38b2840785a2768d97ff2dbf3c21b516961cec0061e134c2a1e600080a2005b3461014b57610738366112d7565b3360005260029260209484865261075960ff60036040600020015416611496565b3360005284865261077760ff60056040600020015460081c166114d8565b6107836101ce3361158e565b336000528486528460406000200154916107b68760405183819483830196873781016000838201520380845201826113b2565b51902003610857578015610812579082916107ea8560405183819483830196873781016000838201520380845201826113b2565b5190209233600052526040600020015561046f33600052600260205242600460406000200155565b60405162461bcd60e51b815260048101859052601c60248201527f4e65772070617373776f72642063616e6e6f7420626520656d707479000000006044820152606490fd5b60405162461bcd60e51b815260048101859052601660248201527513db19081c185cdcdddbdc99081a5b98dbdc9c9958dd60521b6044820152606490fd5b3461014b57600036600319011261014b573360005260026020526108c360ff60036040600020015416611496565b3360005260026020526108e360ff60056040600020015460081c166114d8565b6108ef6101ce3361158e565b33600052600260205261092b6040600020600181015461091660ff600584015416926113d4565b91604051938493606085526060850190611338565b916020840152151560408301520390f35b3461014b5760208060031936011261014b5760043567ffffffffffffffff811161014b5761096e9036906004016112a9565b90336000526002835261098b60ff60036040600020015416611496565b3360005260028352600260406000200154916109c08460405183819483830196873781016000838201520380845201826113b2565b51902014604051908152f35b3461014b5760208060031936011261014b5760043567ffffffffffffffff811161014b576109fe9036906004016112a9565b903360005260028352610a1b60ff60036040600020015416611496565b336000526002835260026040600020015491610a508460405183819483830196873781016000838201520380845201826113b2565b51902003610aa457600290336000525260406000206005810161010061ff0019825416179055600442910155337f0a581ae4192c44a0074ccc9c655d264ea6a838e99ca8dfc8ca439aee62cb5183600080a2005b6064906040519062461bcd60e51b825260048201526012602482015271125b98dbdc9c9958dd081c185cdcdddbdc9960721b6044820152fd5b3461014b57602036600319011261014b576020610b00610afb611322565b61158e565b6040519015158152f35b3461014b57604036600319011261014b576001600160a01b03610b2b611322565b1680600052600260205260ff6003604060002001541615610b65576000526002602052602060243560016040600020015411604051908152f35b60405162461bcd60e51b8152602060048201526016602482015275155cd95c881a5cc81b9bdd081c9959da5cdd195c995960521b6044820152606490fd5b3461014b5760208060031936011261014b57600435903360005260028152610bd560ff60036040600020015416611496565b3360005260028152610bf460ff60056040600020015460081c166114d8565b610c006101ce3361158e565b3360005260028152610c1d60ff6005604060002001541615611645565b8115610d5d573360005260028152610c3f82600160406000200154101561168a565b814710610d195733600052600281526001604060002001610c61838254611581565b9055610c7b33600052600260205242600460406000200155565b600080808085335af13d15610d14573d610c948161147a565b90610ca260405192836113b2565b81526000833d92013e5b15610cde577f7084f5476618d8e60b11ef0d7d3f06914655adb8793e28ff7f018d4c76d505d5906040519283523392a2005b6064906040519062461bcd60e51b82526004820152600f60248201526e151c985b9cd9995c8819985a5b1959608a1b6044820152fd5b610cac565b6064906040519062461bcd60e51b82526004820152601c60248201527f5661756c742068617320696e73756666696369656e742066756e6473000000006044820152fd5b6084906040519062461bcd60e51b82526004820152602860248201527f5769746864726177616c20616d6f756e74206d75737420626520677265617465604482015267072207468616e20360c41b6064820152fd5b3461014b57602036600319011261014b57610dcb611322565b6000546001600160a01b03918216911681148015610df1575b6020906040519015158152f35b506000526003602052602060ff60406000205416610de4565b3461014b57600036600319011261014b57336000526002602052610e3860ff60036040600020015416611496565b336000526002602052610e5860ff60056040600020015460081c166114d8565b336000526002602052600560406000200161ff00198154169055337f8d11ef6404d9eeb0a13d346ad9b49adf23be5a095f5efb8741c3eec74e43ee9c600080a2005b3461014b57610ea8366112d7565b33600052600260205260ff600360406000200154166111cb57821561118657610eeb602060405183819483830196873781016000838201520380845201826113b2565b51902060405167ffffffffffffffff939160e082018581118382101761117057604052610f178461147a565b610f2460405191826113b2565b848152368585011161014b5784846020830137600060208683010152825260006020830152604082015260016060820152426080820152600060a0820152600160c08201523360005260026020526040600020938151805191821161117057610f8d8654611378565b601f811161112c575b50602090601f831160011461109b57958260c0936005937f48cac28ad4dc618e15f4c2dd5e97751182f166de97b25618318b2112aa951a2f9899600092611090575b50508160011b916000199060031b1c19161781555b602084015160018201556040840151600282015561102060608501511515600383019060ff801983541691151516179055565b60808401516004820155019161104860a08201511515849060ff801983541691151516179055565b0151151561ff0082549160081b169061ff00191617905582604051916020835281602084015260408301376000604084830101526040813394601f80199101168101030190a2005b015190508980610fd8565b908660005260206000209160005b601f19851681106111145750836005937f48cac28ad4dc618e15f4c2dd5e97751182f166de97b25618318b2112aa951a2f98999360019360c097601f198116106110fb575b505050811b018155610fed565b015160001960f88460031b161c191690558980806110ee565b919260206001819286850151815501940192016110a9565b866000526020600020601f840160051c810160208510611169575b601f830160051c8201811061115d575050610f96565b60008155600101611147565b5080611147565b634e487b7160e01b600052604160045260246000fd5b60405162461bcd60e51b815260206004820152601860248201527f557365726e616d652063616e6e6f7420626520656d70747900000000000000006044820152606490fd5b60405162461bcd60e51b815260206004820152601760248201527f5573657220616c726561647920726567697374657265640000000000000000006044820152606490fd5b3461014b57602036600319011261014b5761042860043560018060a01b036000541633148015611257575b6112449061176f565b61124f811515611800565b600454611519565b503360009081526003602052604090205460ff1661123b565b3461014b57600036600319011261014b576020600154604051908152f35b3461014b57600036600319011261014b576020610b0061153c565b9181601f8401121561014b5782359167ffffffffffffffff831161014b576020838186019501011161014b57565b604060031982011261014b5767ffffffffffffffff9160043583811161014b5782611304916004016112a9565b9390939260243591821161014b5761131e916004016112a9565b9091565b600435906001600160a01b038216820361014b57565b919082519283825260005b848110611364575050826000602080949584010152601f8019910116010190565b602081830181015184830182015201611343565b90600182811c921680156113a8575b602083101461139257565b634e487b7160e01b600052602260045260246000fd5b91607f1691611387565b90601f8019910116810190811067ffffffffffffffff82111761117057604052565b90604051918260008254926113e884611378565b9081845260019485811690816000146114575750600114611414575b5050611412925003836113b2565b565b9093915060005260209081600020936000915b81831061143f57505061141293508201013880611404565b85548884018501529485019487945091830191611427565b91505061141294506020925060ff191682840152151560051b8201013880611404565b67ffffffffffffffff811161117057601f01601f191660200190565b1561149d57565b60405162461bcd60e51b8152602060048201526013602482015272155cd95c881b9bdd081c9959da5cdd195c9959606a1b6044820152606490fd5b156114df57565b60405162461bcd60e51b81526020600482015260126024820152712ab9b2b9103737ba103637b3b3b2b21034b760711b6044820152606490fd5b9190820180921161152657565b634e487b7160e01b600052601160045260246000fd5b336000526002602052604060002060ff6003820154161561157b57611568600482015460015490611519565b421161157b576005015460081c60ff1690565b50600090565b9190820391821161152657565b6001600160a01b03166000818152600260205260409020600301546115b59060ff16611496565b6000526002602052604060002060ff600582015460081c16156115e75760046115e091015442611581565b6001541090565b50600190565b156115f457565b60405162461bcd60e51b8152602060048201526024808201527f53657373696f6e20657870697265642c20706c65617365206c6f6720696e206160448201526333b0b4b760e11b6064820152608490fd5b1561164c57565b60405162461bcd60e51b81526020600482015260166024820152752ab9b2b91030b1b1b7bab73a1034b990333937bd32b760511b6044820152606490fd5b1561169157565b60405162461bcd60e51b8152602060048201526014602482015273496e73756666696369656e742062616c616e636560601b6044820152606490fd5b156116d457565b60405162461bcd60e51b815260206004820152602160248201527f4f6e6c79206f776e65722063616e2063616c6c20746869732066756e6374696f6044820152603760f91b6064820152608490fd5b1561172a57565b60405162461bcd60e51b815260206004820152601d60248201527f416d6f756e74206d7573742062652067726561746572207468616e20300000006044820152606490fd5b1561177657565b60405162461bcd60e51b8152602060048201526016602482015275139bdd081bdddb995c881bdc881dda1a5d195b1a5cdd60521b6044820152606490fd5b156117bb57565b60405162461bcd60e51b815260206004820152601960248201527f496e73756666696369656e7420706f6f6c2062616c616e6365000000000000006044820152606490fd5b1561180757565b60405162461bcd60e51b81526020600482015260126024820152710416d6f756e74206d757374206265203e20360741b6044820152606490fdfea26469706673582212209af43a2c63a2dab417eb8d3db838dfc663d589b405d556e2826636042f4e7a5c64736f6c63430008140033",
  "linkReferences": {},
  "deployedLinkReferences": {}
}